:020000022000DC
:10600000D087002041B202005552040015B20200B0
:1060100015B2020015B2020015B202000000000025
:1060200000000000000000000000000079AF020046
:1060300015B202000000000031AF020015B20200EC
:10604000F5AF0200F9A40300F5AF0200F5AF0200BE
:10605000F5AF0200F5AF0200F5AF0200F5AF0200A8
:10606000F5AF0200F5AF0200F5AF0200F5AF020098
:10607000F5AF0200F5AF0200F5AF0200F5AF020088
:10608000F5AF0200F5AF0200F5AF0200F5AF020078
:10609000F5AF0200F5AF0200F5AF0200F5AF020068
:1060A000F5AF0200F5AF0200F5AF0200F5AF020058
:1060B000F5AF0200F5AF0200F5AF0200F5AF020048
:1060C000F5AF0200F5AF0200F5AF0200F5AF020038
:1060D000F5AF0200F5AF0200F5AF0200F5AF020028
:1060E000F5AF0200F5AF0200F5AF0200F5AF020018
:1060F000F5AF0200F5AF0200F5AF0200F5AF020008
:1061000053B94AB9002908BF00281CBF4FF0FF311E
:106110004FF0FF3000F00CB8ADF1080C6DE904CE83
:1061200000F008F8DDF804E0DDE9022304B0704770
:10613000704700BF2DE9F04786468C460846089E0A
:10614000154674461946002B40F0C2808542B2FACB
:1061500082F245D94AB1C2F1200300FA02FC2EFABC
:1061600003F3954043EA0C0C94404FEA154EA8B255
:10617000BCFBFEF8230C0EFB18CC08FB00F943EA2D
:106180000C43994528D9EB1808F1FF3704D29945FB
:1061900002D9A8F102072B44A3EB0903A4B2B3FB75
:1061A000FEFC0EFB1C330CFB00F044EA0344A0424F
:1061B00014D92C190CF1FF3304D2A04202D9ACF14E
:1061C00002032C44241A43EA07401EB1D4400023A2
:1061D00034607360BDE8F0874746DDE76346F1E76A
:1061E00092BB431B01214FEA154EAFB2B3FBFEFC3D
:1061F000200C0EFB1C330CFB07F840EA03439845C8
:1062000062D9EB180CF1FF3004D2984502D9ACF1F9
:1062100002002B44A3EB0803A4B2B3FBFEFC0EFB6D
:106220001C330CFB07F744EA0344A7424ED92C1950
:106230000CF1FF3304D2A74202D9ACF102032C4483
:10624000E41B43EA0040C0E7C2F1200320FA03F157
:10625000954090402EFA03F303434FEA154EAFB238
:10626000B1FBFEFC0EFB1C10190C0CFB07F841EAFD
:106270000041884504FA02F422D969180CF1FF3074
:1062800004D2884502D9ACF102002944A1EB0801EF
:106290009BB2B1FBFEFC0EFB1C110CFB07F743EAA3
:1062A00001439F420ED9EB180CF1FF3104D29F42FB
:1062B00002D9ACF102012B44DB1B41EA004192E719
:1062C0006046E3E76146F7E76046A3E76346B7E762
:1062D000834206D916B9002108467BE7C6E900E0EB
:1062E000F9E7B3FA83F78FB9834201D3724508D82F
:1062F000BEEB020460EB030301209C461EB90021A3
:1063000068E73846FAE7C6E9004CF8E7C7F1200C21
:10631000BB4022FA0CF41C432EFA0CF120FA0CF3C9
:10632000B84001434FEA14490EFA07F5B3FBF9F8F8
:106330001FFA84FE09FB18300B0C08FB0EFA43EA27
:1063400000439A4502FA07F240D9E31808F1FF30FA
:1063500004D29A4502D9A8F102002344A3EB0A0310
:1063600089B2B3FBF9F809FB183308FB0EFE41EACA
:1063700003418E452CD9611808F1FF3304D28E45B4
:1063800002D9A8F10203214443EA0040A0FB02988D
:10639000A1EB0E014145CE46434602D306D14D4501
:1063A00004D2B9EB020E68EB04030138002EA6D02C
:1063B000B5EB0E0261EB030101FA0CFC22FA07F3C4
:1063C0004CEA0303F940C6E9003198E74046C5E7C7
:1063D0004346D9E70000000073B5C24DD5F85431EB
:1063E000996811F0010121D101AA40F6034005F09E
:1063F00069FD0446002864D1019883681B789BB925
:10640000BFF35B8FD5F8CC30BFF35B8F05F1CC02C7
:1064100003F00903BFF35B8F52E8001F42E800342A
:10642000002CF9D1BFF35B8F16F02AFF01AA0021DF
:1064300041F2030005F046FD0446002841D1019ECB
:10644000A948B168082201311EF0C3FF304616F09A
:1064500017FF214601AA41F2010005F033FD044671
:1064600078BB019883685A7885F868205A88A5F81F
:106470006A201A7985F86920B3F80720A5F86C20FE
:10648000B3F80530A5F86E3016F0FAFE214601AAE1
:1064900041F2020005F016FD044690B9019E9348B2
:1064A000B168402201311EF094FF90481FF018F8A7
:1064B000304616F0E5FE95F874305A0604D46FF0B5
:1064C0001204204602B070BD214601AA42F2030028
:1064D00005F0F8FC04460028F3D1019E8448B16819
:1064E000082201311EF075FF304616F0C9FE214624
:1064F00001AA42F2020005F0E5FC04460028E0D1C2
:10650000019CA368B3F80120A5F8FC2091B221B149
:10651000DA787848114622F004FD204616F0B0FEE5
:1065200095F8746016F0200618D1022140F66D40EF
:1065300005F06CFC0446002800F0CC8002210830F5
:1065400021F0C8FE0123037046702146324640F612
:106550006D4005F0B7FC04460028B2D195F89430A0
:106560001B0712D501AA002142F21C0005F0AAFC6B
:1065700004460028A5D101988368D3F80120D3F8F8
:106580000530C5E9362316F07BFE95F8D0309E061F
:1065900024D50DF1020168461FF03AFA044600289E
:1065A0008FD1042142F2240005F030FC0646002879
:1065B00000F090800421083021F08CFEBDF80030FE
:1065C0000380BDF8023043802246314642F2240067
:1065D00005F078FC044600287FF473AF95F8D030BE
:1065E0005C0610D501AA002142F22A0005F06AFCDF
:1065F000044600287FF465AF019883685B7885F8CE
:10660000183116F03DFE082142F2010005F0FEFBB4
:10661000044600285ED00821084421F05BFE95F86E
:10662000D01011F0400F024640F2022308BF0323AE
:1066300088074CBF43F02C0043F00C008B0695F804
:10664000D13048BF40F0400013F0090F95F89A3060
:1066500018BF40F4006003F00603CE0748BF40F0C7
:106660001000062B08BF40F4C07000211FF0B0F8E6
:106670002146002242F2010005F024FC04460028D5
:106680007FF41FAF95F87430B5F8FC10980624D449
:10669000C9B901AA41F2050005F014FC044600281E
:1066A0007FF40FAFB5F8FC30019C4BB9A368B3F889
:1066B0000120A5F8FC209A880E48114622F031FCF2
:1066C000204616F0DDFD082140F6014005F09EFB56
:1066D000044688B96FF06804F3E60029F3D16FF03F
:1066E0000404EEE600000020700000207800002086
:1066F000D0000020000100200821084421F0EAFD1C
:1067000095F8D030D907024657D431484FF00051A0
:106710001FF05EF82146002240F6014005F0D2FB52
:10672000044600287FF4CDAE014601AA4FF6014091
:1067300005F0C8FB044648BB019816F0A1FD2146B0
:1067400001AA4FF6024005F0BDFB0446F0B9019ED8
:106750002048B168022201311EF03BFE304616F09F
:106760008FFD95F8B9305B0710D501AA21464FF689
:10677000034005F0A7FB48B9019C1748A168012216
:1067800011441EF026FE204616F07AFD1FF043FB52
:10679000044600287FF495AE07F0E4FA044600288A
:1067A0007FF48FAEEB79002B3FF48BAE08210B48C2
:1067B0001EF055FF05F07EFE83E603A1D1E900013E
:1067C000A6E700BFAFF300809088000200800020A1
:1067D00010880002B9000020B8000020CC00002082
:1067E0002DE9F843D0E90B35D0F828805C19303416
:1067F000A0450F46164619D81D4DA3FB05011AA347
:10680000D3E90023FFF77CFC0346A4EB0800A0FBC0
:10681000050123F07F4414A3D3E90023FFF770FCA4
:1068200020F07F403C603060BDE8F883DFF84090A6
:106830000DA3D3E90023A8FB0901FFF761FC04467F
:1068400005F1300008A3D3E90023A0FB0901FFF7FD
:1068500057FC24F07F4420F07F403C603060BDE86E
:10686000F88300BFAFF300808D49FD1A07000000D8
:1068700000CA9A3B00000000002800F0BC812DE90E
:10688000F04F264D95F86A30D9078FB000F1ED81B1
:1068900095F8292095F8353005EB820205EB830346
:1068A000D76AD3F8388077B33E4616F8020BC0F3A8
:1068B00080100BF0C9FD06220146044605F16B006D
:1068C0001EF087FD0622214630461EF082FD3B78F1
:1068D0005A0606D5062130460AF03AFB002800F099
:1068E000C681464616F8020BC0F380100BF0ACFDD3
:1068F0000622014604460A481EF06BFD214630463A
:1069000006221EF066FD3B7813F00E0F40F00C815E
:106910002B6A3BB10C200FB0BDE8F08F8C410020FA
:10692000F74100200DF064FC8146002800F0AC81A6
:106930000DF06AFC8246002800F0A3810FF088FC6D
:106940000446002800F0A2814FF6FF73406F2385B4
:1069500004F11C030B93002800F08F8104F16802FE
:1069600004F164010AF000FBB4F8603094F87A2076
:10697000DFF834B323F4EF6323F0070343F48873A1
:1069800043F00103A4F8603094F8393022F0070294
:10699000594684F87A2003F03F0394F83C2063F0D2
:1069A0007F0384F8393022F0070211F8013B84F8A4
:1069B0003C2094F8D62003F0010363F300020B930C
:1069C000BA4B84F8D620002606224FF01B10C4E9EB
:1069D0001603A4F8C020C4E912666667A4F87860BC
:1069E0006686C4F82E6084F83B602665A4F8C4600F
:1069F000A4F8C860A4F8D060A4F8CC6004F1D70073
:106A00001EF0E7FC94F8D6000B9B63F341000622CE
:106A10000BF1010184F8D60004F1DD001EF0D9FC71
:106A200094F8E43084F8F26023F0070384F8E4304B
:106A300094F81A31A4F8F06066F3041384F81A315C
:106A4000C4F81461A4F81861A4F830610CF018FFC0
:106A500094F84A31A4F8486123F0030384F84A31DA
:106A600094F87A30A4F8506123F0180384F87A304F
:106A700094F8763184F8536123F0070384F8763173
:106A800094F89631C4F8549166F3861384F89631DD
:106A900094F8C631A4F8746166F3C303002284F845
:106AA000C6310023C4E94E01C4E9502384F8E560EF
:106AB000A4F89461A4F8A661C4F8EC60A4F8C461D9
:106AC000A4F8D0610FF02AFFA4F8D2000FF02CFF39
:106AD000D4F8D421764BA4F8D4001340C4F8D431B0
:106AE0000FF028FF94F8D83160F3020384F8D8310E
:106AF0000FF026FF04F11C032B6294F8D831C4F880
:106B0000DC6160F3C503C5E9189AC4E97A66C4E993
:106B10007866C4E905662670E46184F8D83114F01B
:106B200051FA002840F0A58095F824300121C3F3E4
:106B300042030DF133008DF833300AF09FFB02461B
:106B400000285AD098F8011038460EF075FA5949C5
:106B5000B5F8686000243123AB60C5E9054450A353
:106B6000D3E900232C706C60EC60A0FB0101FFF7FF
:106B7000C7FA28610BF03EFC80463EB93C7804F031
:106B80000F04A4F10104B4FA84F4640995F8240014
:106B90002B6964F3000010F0010485F8240033D061
:106BA0000020454A454F049302240DAE01930592FF
:106BB0000321CDE902000896069543460090079709
:106BC00022460D940BF048FB31460DF0C9FBA0B9ED
:106BD0003B4905914AF2D8330093CDE90300CDE952
:106BE00001000797089606954346012203210D945C
:106BF0000BF032FB2EE00EF071B92B6A002B3FF444
:106C000089AE0EF029F985E62E4A2F48049303F247
:106C100047130695029491211360A6FB000301FB24
:106C20000631264B0793244B05934FF6FF730992C9
:106C3000022703930DAE1AA3D3E900230D970896FC
:106C4000FFF75EFA4346CDE900403A46204603216D
:106C50000BF0ACFA31460DF083FB0028CDD195F84E
:106C60006A3043F0010385F86A30002053E61220B1
:106C700051E60EF0F1F803204DE604F16C00606778
:106C80006CE648460DF0BAFA072044E650460DF08F
:106C9000C1FA48460DF0B2FAF6E700BFAFF3008044
:106CA0008D49FD1A07000000A1B704004801480102
:106CB0000000FFF600CA9A3BA950030021390300E7
:106CC000F94B030080410020002AE7840000000007
:106CD00070B590F824308AB0C3F342030D460446E1
:106CE00001210DF1230016468DF823300AF0C6FA73
:106CF0007178024628460EF09FF91D491AA3D3E980
:106D00000023A0FB0101FFF7FBF923699842054628
:106D100021D21B1A00220192164A0293164BA21A84
:106D2000A3FB02320221920900230A4409AE099111
:106D300012490591CDE903330321D2B2069600939F
:106D400018460BF0FDFA31460DF00AFB38B9256103
:106D500000200AB070BDFBD9C21A0023DBE70C206B
:106D60000AB070BDAFF300808D49FD1A0700000026
:106D700000CA9A3B8C41002009CB3D8D213903008C
:106D80002DE9F04FC38D468EB0F8F4701E4490F894
:106D90001A31B6B2314413F007038BB004461FFA20
:106DA00081F940F08D81A9EB07011FFA81F90904EF
:106DB00000F1E781904690F93920002AC0F249811C
:106DC00094F8F03084F8F13094F8942194F89531E7
:106DD00094F8181184F81911934206D094F896315A
:106DE00003F00F03062B00F03C82A74BD4F814519C
:106DF0001A68944204BF00221A60002D00F031810D
:106E00002B68002B00F02D815B68628DC4F8143173
:106E1000B4F81C31934205D1B4F81E11A28D9142F1
:106E200000F00382238DEB8019232B7100232B7735
:106E3000B4F81C31EB83B4F81E312B84B4F8203144
:106E400028686B8429460DF0EBF90DF0F3F9A3687F
:106E5000002BC0F2F280B4F82AC0B4F81C511CFB1D
:106E600009FC1FFA8CFCBCFBF5F315FB03F080B2A8
:106E700084451FFA83FA80F0CE80A0EB0C0040F22C
:106E8000E242824902FB00F0A0FB01017CA3D3E9AE
:106E90000023FFF735F920F07F408044E38D1F4445
:106EA000BF1B94F939305744E785002B40F2E24785
:106EB00007FB05F6C0F26881754A764976484FF4BB
:106EC00058631CF03FFC404080F311884FF00300F2
:106ED00002DF0027B346714AD4F81C11B4F8203100
:106EE0006F48C4F82A103244B2FBF6F2A4F8C62068
:106EF00042F21072090C02FB03633044013BB0FB09
:106F0000F6F0B3FBF6F3A4F8C23083B2881D8342D7
:106F1000A4F8CE3004DDC1F57F41FA310B449BB2B9
:106F2000A4F8CA3094F81A311B0744BF0023A4F810
:106F3000C4300221012015F029FF002202218246DF
:106F400001200AF061F857494FF4FC72204609F01D
:106F5000EBFF00F103095FFA89F9534B00944A46AD
:106F6000012100200BF004FA30F002030CD0484A53
:106F70004E49494840F6AF531CF0E4FB404080F3D3
:106F800011884FF0030002DF404EABFB066B3CA3C1
:106F9000D3E9002330465946FFF7B2F80894069427
:106FA00023690493424B20F07F45A5FB0331F01A7F
:106FB000404B07934FF007023F4B059302FB05112F
:106FC0004FF6FE736BEB010103934FF47A720023CB
:106FD000FFF796F84346CDE9015000974A46012154
:106FE00000200BF039F930F002030CD0284A2F4969
:106FF000294840F6C9531CF0A5FB404080F3118896
:107000004FF0030002DFBAF1000F40F008810020CA
:107010000BB0BDE8F08F05FB13C11C4840F2E24302
:1070200089B203FB01F1A1FB000115A3D3E9002301
:10703000FFF766F8A8EB000830E7E168626823F024
:10704000004391422CBF88449044A360A8EB0308FE
:1070500001E790F8E520002A3FF4B2AE80F8E53071
:10706000B2E60B4A15490C4840F6FA431CF06AFB9D
:10707000404080F311884FF0030002DF2B68C3E625
:107080008D49FD1A07000000A047002000CA9A3B66
:10709000D0AA040080A6040020A60400FF596202C2
:1070A0007FC3C901D8210020815A0300B0AB04007E
:1070B0008D49FD1A295A0300C9A103009CAB0400A5
:1070C00001200DF0BDF80646002800F0DC807C4869
:1070D00009F0F2FE0546002800F0D580794B1A68C9
:1070E000002A00F0C7800DF0CDF83368D4F81421E1
:1070F0005A60C4F814612B79002143F003030C2279
:107100006A712B71E97194F828312B72D4F824310B
:107110006D4AA2FB03239B0AA5F80930B4F81C3181
:10712000A5F80B30B4F81E31A5F80D30B4F82031B5
:10713000A5F80F30A38D94F81A2106334B4461F360
:1071400002029BB284F81A21A4F8F430A5F8113099
:1071500094F81A31D4F8E021D4F8DC1143F010038C
:1071600084F81A31002A00F08780D4F8E4311B68D3
:107170002B60D4F8E4311D60C4F8E4512B68002B77
:107180007ED06FF0760043E7226CA36C02FB1933CC
:10719000A36413F067FF054694F8E400C0F3C2004F
:1071A00013F062FF054406FB05F5484B94F82821CF
:1071B00005F5742505F23F25A3FB0535AD0C07FB4E
:1071C00002F2A36C226505FB0AF072080344963AAA
:1071D000934228BF13462564A6EB050B3C4DC4E93A
:1071E00011230023C4F8EC30A0FB050132A3D3E93E
:1071F0000023FEF785FF344BA8EB0008D4F82401E8
:10720000A3FB0030800A07FB00F02BA3D3E9002387
:10721000A0FB0501FEF774FF20F07F475BE601222B
:107220000221104609F0F0FEF1E640F2E241B4F826
:10723000202101FB03F342F2107101FB0232013AFB
:10724000B2FBF3F3B4F8C2209BB29A427FF4EAADEA
:10725000012328682B7129460CF0E2FF0CF0EAFFAD
:10726000F5E5B4F8A6318BB984F895210023A4F88C
:10727000C830BAE51C6036E72960C4E977557BE77A
:10728000C4F8EC517DE76FF06800C1E6A4F89E31C8
:10729000B4F8963103F0C00343F01003A4F896311C
:1072A000D4F8A031C4F89831B4F8A431A4F89C31D2
:1072B0000023A4F8A631D9E78D49FD1A0700000084
:1072C00008430020A04700205917B7D183DE1B4395
:1072D00000CA9A3B000000002DE9F04F0B681468CB
:1072E000D3F80090037F93B0C3F3801B05460F468D
:1072F000164600F11E01062210A8CDF82CB01EF093
:1073000068F810A906220EA81EF063F895F81C80F4
:10731000D5F800C0CDF828C04FEAD81809F16B0A9B
:107320000EAB5A46514640460FF010FB00284CD198
:1073300094F8D6200C906BF3410284F8D6200EA965
:10734000062204F1DD001EF044F894F8D62068F31C
:107350000002514684F8D62004F1D70006221EF020
:1073600038F806F10408032205F12E0106F10800A1
:107370001EF02FF806F1180A042205F12A014046F2
:107380001EF027F8052205F13A0150461EF021F8BB
:107390000521504609F072FF727F00F03F0060F354
:1073A0000502727795F83F20C2F30401B177A98EE8
:1073B000F181012802F01F0289B206D91B3202F0C6
:1073C0001F020B2A01D80C9BC9B90022C9F814204E
:1073D00096F820300A9862F3000386F82030EC68B3
:1073E000012629462E710CF01BFF206826712146CC
:1073F0000CF016FF0CF01EFF13B0BDE8F08F3A68DA
:107400005360EB8E338295F83F3094F8E420B6F861
:107410000EA05B0963F3C5026B8E84F8E42040F292
:10742000E24202FB0AFA0D9313F01CFE834694F825
:10743000E400C0F3C20013F017FE0BEB00030AFBDD
:1074400003F3AF4903F5742303F23F23A1FB0313B6
:107450009B0C73624FEA5A03963BB36295F8313046
:1074600040F2E24202FB03F3B363B5F838B0A54A39
:10747000A54B42F210715244B2FBFAF2A4F8C620B6
:107480001FFA8BF201FB02A25344013AB3FBFAF359
:10749000B2FBFAF2A4F8C2209AB2A4F8CE20318A44
:1074A000881D824204DDC1F57F41FA310A4492B25F
:1074B000A4F8CA204146042204F1E8001DF089FF27
:1074C0002B4613F81C2FC2F340120C92DA0700F17E
:1074D000DD809DF82C30AB774FF4807306220EA927
:1074E000AB8305F11F001DF074FFF389EB84338A31
:1074F0002B85A5F82AB094F8E430C3F3C20385F8CD
:107500002C3020460EF0B0FEB081E88029460A9863
:107510007D680CF085FEB3890C9AEB801C232B71DF
:107520002B68002A40F0C780DDF830B085F81CB029
:10753000184629460CF074FE0CF07CFE96F84500C7
:10754000B6F84080B6F84250012100F0070013F071
:107550009DFB454405F56175291883466B484FF03E
:1075600000083123A360A1FB000163A3D3E900233A
:10757000C4F80480C4F80C80FEF7C2FD20F07F4000
:1075800020610D99FB68756A40F2E24202FB01330B
:1075900003F2B243A3EB0B034246022101200A93FC
:1075A00009F032FD48460DF02FFF821C584BCDF8F4
:1075B0000090D2B2404601210AF0DAFE0128AAEB7F
:1075C000050500F0858099F82430DB076BD4204650
:1075D0000EF04AFEDFF83491A5FB098546A3D3E9F6
:1075E0000023824629464046FEF78AFDBB68494A89
:1075F00007920AF10307A3F1490A474B069420F0CA
:107600007F46A6FB0331B8EB0300444B05934FF4D0
:10761000EB73089323694FF0000BCDE903B34FF0F0
:10762000070303FB061165EB01014FF47A72002397
:10763000FEF766FD0A9BCDE90160A3FB09012EA3BD
:10764000D3E90023FEF75CFDFFB220F07F400090FD
:1076500053463A46012158460AF0FEFD30F0020337
:107660000CD02F4A2F49304840F2D7131CF06AF84B
:10767000404080F311884FF0030002DF0122022115
:10768000104609F0C1FC13B0BDE8F08F244A274929
:107690002548FF231CF056F8404080F311884FF036
:1076A000030002DF15E7002301220093184611466C
:1076B0000AF05EFE8BE7727F0A9342F0400240467A
:1076C000727712F0A5FE4FF0010B0A9BF0832DE7B5
:1076D0000CF086FE81453FF476AF114A14491248FA
:1076E00040F2A1231CF02EF8404080F311884FF0A7
:1076F000030002DF67E700BF8D49FD1A07000000A5
:1077000083DE1B43FF5962027FC3C90100CA9A3B53
:107710008DA103005DA103008D49FD1AC9A10300DD
:10772000F4AC0400B0AB040020A604000CA70400D5
:1077300050AD0400000000002DE9F04F8FB0DFF8DD
:10774000D8800B900DF137010DF136000CF0E2FD01
:10775000324F9DF836A09DF837B00AF04BFED8F8AE
:1077600000400A90A4FB075429A3D3E90023002674
:1077700021462846FEF7C4FC0B9B0693CDE907661D
:10778000274B05938146D8F8040021A3D3E90023B1
:10779000A0FB0701FEF7B4FC224B29F07F47A7FBB3
:1077A000033120F07F400722CDE9036002FB07117F
:1077B000E81A64EB01014FF47A720023FEF7A0FC93
:1077C0000A9B0096CDE901705A46032150460AF003
:1077D00043FD30F0020416D1134A144800231AF076
:1077E00031F968B19DF837209DF8360000942346A2
:1077F00003210AF0BDFD6FF073000FB0BDE8F08FFC
:10780000D8F80C00F9E76FF08B00F6E7AFF30080D3
:107810008D49FD1A070000009854002000CA9A3BC9
:1078200021EE03008D49FD1A447B0B00805400209B
:1078300038B50F4D04460AF0DDFDA9680AF0DCFDFD
:107840006968B0FBF4F404440A4807A3D3E90023B1
:10785000A1FB0001FEF754FC20F07F40844294BF5E
:107860000020012038BD00BF8D49FD1A070000002F
:107870009854002000CA9A3B01481AF05BBA00BF36
:107880001002002007B521F0C0FD4FF47A72A0FB72
:10789000020302FB0131C00B074A40EA414010607D
:1078A00000234FF400420548CDE900231BF006F801
:1078B000002003B05DF804FB582E0020B00C00201F
:1078C00008B5044B187800F087F9BDE808401BF0B4
:1078D000FAB800BF50580020044B1A78824202D0F8
:1078E0001870FFF7EDBF0020704700BF5058002010
:1078F00008B521F08AFD4FF47A72A0FB020302FB67
:107900000131C00B044A40EA41401060BDE8084024
:107910000020FFF7E1BF00BF582E002008B521F07E
:1079200074FD4FF47A72A0FB020302FB0131084A96
:10793000C30B126843EA41439B1A47F23052934209
:1079400004DDBDE808400120FFF7C6BF08BD00BF49
:10795000582E002030B5194C8DB00022002303A909
:10796000204619F005FF08B10DB030BDDDE9041562
:1079700003981BF0A6F80028EFDBFF238DF81830E2
:10798000B5FA85F35B0907908DF8203021F03DFDB5
:107990004FF47A72A0FB020302FB0131C00B40EAF4
:1079A0004140C90B8DE8030006ABCDE90A010FCBBE
:1079B00000F01EF91BF087F8CFE700BF2C0E002067
:1079C0001FB583F00103CDE90112039300220023C8
:1079D00001A9044819F076FE03481AF0ABF905B086
:1079E0005DF804FB2C0E00205C2E002010B5044630
:1079F00078B10949094821F016FBA36808491B68BA
:107A000020469847A3689B680BB120469847002002
:107A100010BD6FF01500FBE7557902005C2E0020C9
:107A2000C17902002DE9F041134B144EA3EB060877
:107A300007460D4606EBC106C8F3C708A84506DC95
:107A40000024384621F08CFE2046BDE8F0813268E3
:107A50003B689A420BD13D71736838461B68984762
:107A600001280446ECD0022804D00028E9D10135D1
:107A70000836E3E70024E7E7D4BB0400A4BB040016
:107A800000B58BB0064B074A2821684603F0AEFCD0
:107A900005490122684602F027FD0BB05DF804FBA2
:107AA0001CB3040026B30400515800202DE9F04116
:107AB000466807693179F38804463068D0F810E0E9
:107AC000D0F80880DEF80050DA0754BF43F4B01352
:107AD00083F4D0134FF0010C23F480120CFA01FC54
:107AE000DB074CBF45EA0C0525EA0C05CEF8005033
:107AF000D8F80030984760BB02F04AFE164802F002
:107B000083FD054610BB1549154821F0D0FA1548EC
:107B100002F024FD7B785BB901233B700022002337
:107B20000F481AF06FF9A3681B680BB120469847FD
:107B3000318959B140F2E7304FF47A72002300EBFB
:107B4000C1300021FEF7DCFA1AF062FC2846BDE8DD
:107B5000F0816FF00405F9E720020020817A02002D
:107B60009810002039B3040008B54FF4F012002338
:107B700002481AF07BF900EAE07008BD9810002076
:107B8000F7B50C461646114901AA1F461CF025F907
:107B9000B0B1019BA3B9012C15D10D4D2246294648
:107BA0003846B047002806DB2B780A486C7023B1B2
:107BB0001AF09FFF002003B0F0BD1AF0ACFFF9E708
:107BC0006FF00100F7E76FF01500F4E71CB3040055
:107BD000515800206099040010B504460C2021F093
:107BE000C6FD024A0260047210BD00BFA49D0400DD
:107BF00084B070B504AC84E80F00202021F0B7FDFC
:107C00000446084B44F8083B04AD06460FCD0FC4AC
:107C100095E8030084E803003046BDE8704004B0F6
:107C2000704700BFA89D04000268034B9A420CBF36
:107C300008300020704700BFA89D040010B504461E
:107C40000C2021F094FD024A0260047210BD00BFB6
:107C5000B09D040082B038B504A981E80C00054647
:107C6000114819F013FB0446A0B16B68012B0CD02E
:107C7000022B05D0A3B9BDE8384002B01AF071BF9D
:107C80001AF076FF00282046F5DCBDE8384002B047
:107C90001AF060BF6FF00400BDE8384002B07047D2
:107CA0006FF08500F8E700BF1CB3040082B010B588
:107CB00002A981E80C0004460B4819F0E7FA78B1F4
:107CC0006368022B04D00020BDE8104002B070476A
:107CD0001AF04EFF0028CCBF002001206060F2E7C0
:107CE0006FF00400F0E700BF1CB304000D4A52F827
:107CF0002030013342F820300B4A012311788340B1
:107D00000B430A490978DBB2137023EA01030849DF
:107D1000084A097850780B43181A537018BF01208D
:107D2000704700BF6C2E002055580020535800208B
:107D300054580020450C002010B5114A52F820304C
:107D4000002B19DD013B42F820300E4A2BB9137885
:107D50000121814023EA010313700B480B4B047887
:107D600010780B4A5978127820EA040010435870B2
:107D7000401A18BF012010BD6FF01500FBE700BFCF
:107D80006C2E00205558002053580020450C002030
:107D900054580020044A012312788340D8B213407B
:107DA0001B1A5842584170475558002010B5084BCF
:107DB000084A1870084B51781C78084B1B7823EA46
:107DC000040318435070401A18BF012010BD00BFB3
:107DD00054580020450C00205358002055580020CE
:107DE000074B00221A70074B074A1978074B507847
:107DF0001B7823EA0103181A537018BF012070473B
:107E00005458002053580020450C0020555800209D
:107E1000A0F1E003072B03D82030C0B2FFF766BF04
:107E2000064B062213F8011F19B1013AFAD10020BE
:107E3000704718700028F8D0F9E700BF470C002001
:107E4000A0F1E003072B10B404D8203010BCC0B25E
:107E5000FFF772BF0023064A194612F8014F01339B
:107E6000A04208BF1170062BF7D1002010BC70474C
:107E7000470C0020A0F1E003072B03D82030C0B24C
:107E8000FFF788BF064A002312F8011F884204D07A
:107E90000133062BF8D1002070470120704700BF46
:107EA000470C00200248082200211DF09DBA00BFA7
:107EB000460C002010B50849002301EB4302B2F83C
:107EC000014024B10133062BF7D1002010BDA2F8E8
:107ED00001000028F6D0F8E7380C002030B5002368
:107EE000074C194604EB43020133B2F801508542B6
:107EF00004BF51709170062BF4D1002030BD00BF3B
:107F0000380C002002480C2200211DF06DBA00BF81
:107F1000390C0020074A002302EB4301B1F801109D
:107F2000814204D00133062BF6D100207047012096
:107F3000704700BF380C002000487047450C0020F7
:107F400000487047380C002008B5FFF7F5FF094AD4
:107F5000127822B1012A07D06FF0850008BDBDE874
:107F60000840092100F0CABDBDE80840013000F01A
:107F7000D1BC00BF8C2E002008B5FFF7E1FF094AF5
:107F8000127822B1012A07D06FF0850008BDBDE844
:107F900008400D2100F0B2BDBDE80840013000F0FE
:107FA000DFBC00BF8C2E002002490348012202F0F2
:107FB0009BBA00BF56580020DDB3040070B5002501
:107FC0000560064600F0CCFA044680B100F060FD82
:107FD000022806D000F0FCFB0123706033703046AD
:107FE00070BD064B1B78012BF4D02846F5E700F056
:107FF0004FFD0228EED123462046EEE756580020DA
:1080000073B502F0C5FB0C4802F0FEFA044678B9DD
:108010000A490B480B4E21F04AF86D460A4802F017
:108020009DFA2846FFF7CAFF95E8030086E803009B
:10803000204602B070BD00BF38020020A97F0200B8
:10804000C81000208C2E0020F1B3040082B00DF186
:10805000080C0CE9030019469DF8003010461BB1CE
:10806000012B05D0054A00E0054A02B003F0BEB975
:10807000019B044A02B003F0B9B900BF06B4040082
:10808000FBB30400FFB3040030B589B001AD134C5D
:108090002846FFF793FF94E80C0095E803001AF0D8
:1080A00025FEC0B9FFF7FEFEFFF72CFFFFF74CFFE0
:1080B000FFF762FF95E803000A2305AA84E803009E
:1080C000FFF7C4FF94E8030003AB83E8030000F06C
:1080D00025F81AF0F8FC09B030BD00BF8C2E002046
:1080E00070B50C4615460B4900221E461BF075FE66
:1080F00008B9002070BD012C08D10749224630463E
:10810000A8470028F6DDFFF7BFFFF2E76FF0150084
:10811000F0E700BFE7B304005658002013B56C46E3
:1081200084E80300102021F022FB0246054942F8B2
:10813000081B034694E8030082E80300184602B0D7
:1081400010BD00BF209E04001FB520BBF9B113492C
:108150000B6843F001029A420A6018D04FF4807312
:10816000ADF8003021F051F94FF47A72A0FB020310
:1081700002FB0131C00B40EA4140C90BCDE90201CD
:1081800004AB13E90F0000F07BF81AF09CFC002010
:1081900005B05DF804FB6FF01500F9E7942E0020A0
:1081A0002DE9F04F9A46234B15460C2202FB05336E
:1081B000884693E807008DB005AC84E80700DDE948
:1081C000166719F063F8814670B3CDE90885CDE9EB
:1081D0000A67059819F05AF88368D3F804B0BBF120
:1081E000000F09D00CAB13E90300DDE908238DE88B
:1081F00003002046D847A0B9D9F808301B78022BD5
:1082000014D8CDE90885CDE90A670CABCDF808A0F4
:1082100013E9030042468DE803002B4620461AF07E
:10822000EAFD0DB0BDE8F08F0120FAE76FF08500A0
:10823000F7E700BF2C9E040073B50F4B06460C46B3
:1082400015461AB10D4A126843F8212053F824103C
:1082500000201AF0C0FD58B1DDE906230021CDE968
:10826000002330462B462246FFF79AFF002801DD07
:108270006FF0850002B070BD942E0020942E002077
:108280007FB56C4684E80F00182021F070FA05468F
:10829000054B45F8083B064694E80F0085E80F00BB
:1082A000304604B070BD00BF2C9E040084B070B591
:1082B00004AC84E80F00202021F059FA0446084B52
:1082C00044F8083B04AD06460FCD0FC495E8030003
:1082D00084E803003046BDE8704004B0704700BF3A
:1082E000349E04000268034B9A420CBF0830002001
:1082F000704700BF349E040013B56C4684E8030049
:10830000102021F034FA0246054942F8081B0346C2
:1083100094E8030082E80300184602B010BD00BFD5
:10832000389E040007B5094B1A78094B8DF80020D8
:10833000162102FB0133019302AB13E90300FFF79F
:10834000DBFF03B05DF804EB1AF0BDBB575800200B
:108350005858002002490348012202F0C5B800BF66
:108360005758002090B4040070B503788AB00446D2
:108370000E4607AD032B20D8DFE803F002191B1DC2
:10838000114928461CF0E4FF059563780493A3780F
:108390000393E37802932379019363790093A3799C
:1083A0000A4A1E2130461AF0DAFE0AB070BD0849AA
:1083B000E7E70849E5E70849E3E7084A0A212846CC
:1083C0001AF0CDFEE0E700BFA3B40400CCB4040073
:1083D000AAB40400B1B40400BBB40400C5B40400E2
:1083E0002DE9F0418AB00D4616461F496A460446FB
:1083F0001F461BF0F2FC08B30098F8B10A2201A94D
:108400001CF02FFF019B1B785BBB162D29D1C4B23A
:10841000042C26D8DFF854806C432A4608EB04016C
:108420003846B047002806DD04F10F0002A9404499
:10843000FFF79AFF00200AB0BDE8F0810C496A46B8
:1084400020461BF0CAFC0028F4D0009B002BF1D181
:10845000012D06D107492A463846B04700EAE070A8
:10846000E9E76FF01500E6E7EFB404005858002084
:1084700094B404005758002010B590B004461DF085
:10848000A2FF6946FFF770FF08A9204605F0B2FA7F
:108490009DF82130012B14D10B4819F04BFC2046DC
:1084A0001DF091FF094B19780F22162313FB0123AE
:1084B0000749072219441CF07CFF10B9054819F040
:1084C00039FC10B010BD00BFB0020020575800208A
:1084D00058580020C002002008B5084B08481978F9
:1084E0000F22162313FB01231844064907221CF010
:1084F00060FFB0FA80F0400908BD00BF5758002067
:1085000058580020A8B704002DE9F04104468CB06B
:108510000D464FF016080F4F04A9284614FB08F625
:10852000FFF722FF06F10F002946072238441CF00E
:1085300050FF22460849684602F072FF4246B919C8
:10854000684601F0D1FF054819F0F4FB0CB0BDE816
:10855000F08100BF58580020F8B40400C002002089
:1085600010B5124B12491A7816240F2314FB02344B
:10857000104B1C4488B0072220461CF01AFF10B98B
:10858000002008B010BD2146002005F0E1F90446A6
:108590000028F5D0694605F02DFA20461DF04CFE66
:1085A0009DF81C00831E58425841EAE757580020A6
:1085B000A8B7040058580020F0B58DB0FFF78CFF25
:1085C00098B9FFF7CDFF80F001035B00DBB2214DCE
:1085D0002A7803EB0213112B09DC022B2DD0102B70
:1085E00023D0002420460DB0F0BD0223EFE7202B5E
:1085F0001BD0122BF5D104F09FFC00232B700446F6
:108600000028EFD1144F0FCF02AE0FC63B681349BD
:10861000336004220094234602A804F05BFC044665
:108620000028DFD102232B70DBE704F085FC002358
:108630002B7004460028D4D0D4E7074E0FCE07ACE9
:108640000FC433682360002304490093042207A861
:10865000E3E700BFC6580020F09C04003C9E0400E5
:1086600030B591B005461DF0AEFE69460446FFF7F1
:108670007BFE08A9284605F0BDF99DF82130012BA5
:1086800005D1FFF729FF214618B903F0E9FD11B024
:1086900030BD034B1878FFF737FFFFF78DFFF6E784
:1086A0005758002030B591B00D4608A9044605F092
:1086B000A1F99DF82130012B0BD120461DF083FE3E
:1086C0006946FFF751FE114B00221A701DB1FFF7EA
:1086D00073FF11B030BD022120461DF01AFEFFF7D6
:1086E0006BFF20461DF06FFE094B19780F221623F1
:1086F00013FB01230749072219441CF05AFE0028E6
:10870000E7D1054819F016FBE3E700BFC658002083
:108710005758002058580020C002002070B5002093
:1087200088B003F0D9FE0446002839D102F030F8B1
:108730001D4801F069FF044690BB1C491C481D4EB2
:1087400020F0B5FC1C4801F009FF1C4801F006FFB1
:108750002146204603F084FD25462A4631466846D8
:1087600002F05EFE013568461BF033FB082DF4D1A4
:10877000134E00252A463146684602F051FE013567
:1087800068461BF026FB082DF4D10E4805F0BCF816
:108790000D4805F0B9FA0D4805F0D0FAFFF70CFFC7
:1087A000204608B070BD00BF98020020558302002B
:1087B000F8100020F8B4040008B504000CB504005B
:1087C0000FB504007C02002060020020500200204F
:1087D000014B1878704700BF57580020044B0548DC
:1087E00019780F22162313FB01231844704700BF8A
:1087F00057580020585800201FB54D240294044CAF
:108800000194BDF8184000941EF09CFE04B010BD09
:1088100052B5040007B5064B0093064906480523E8
:108820004FF4407219F08CFA002003B05DF804FB9D
:108830005C9E0400985900202811002010B5FFF715
:10884000CDFF0649072204461CF0B3FD28B121469E
:108850000020BDE8104005F07BB810BDA8B70400AB
:10886000F0B5134E134F89B00022002369463046FD
:1088700018F07EFF054608B109B0F0BDFFF7DEFF36
:1088800004460028F8D01822294602A81CF0ACFDA6
:1088900008230DEB030120460397CDF810D0ADF867
:1088A000143007F00BF820461DF0C6FCDCE700BFD3
:1088B000FC0D0020C89E04002DE9F041134FDFF8A5
:1088C00050808AB001AE002200233146384618F0AD
:1088D0004FFF054610B10AB0BDE8F081FFF7AEFFCB
:1088E00004460028F7D01822294604A81CF07CFD75
:1088F0000C2304A92046CDE90586ADF81C3006F00E
:10890000DDFF20461DF098FCDDE700BFCC0D002008
:108910002C9F040037B5054640F6CD4201460023A2
:108920000C4818F0CFFE044678B110F10B0F09D1B6
:10893000002200236946074818F01AFF2846FFF76F
:10894000E9FF0446204603B030BD0349034820F048
:1089500097FBF7E7FC0D0020E00200202811002023
:1089600030B5054685B040F6CD42014600230D489E
:1089700018F0A8FE044678B110F10B0F09D10022BF
:10898000002301A9074818F0F3FE2846FFF7E8FF87
:108990000446204605B030BD0349044820F070FB72
:1089A000F7E700BFCC0D0020D002002028110020E6
:1089B00010B504460C2020F0DAFE024A0260047270
:1089C00010BD00BF909F040008B500F0D9F8BDE8C5
:1089D0000840014920F054BB9803002007B50A481D
:1089E00020F0A6F868B14FF4F0120023CDE900237F
:1089F00006480022002319F061FF002003B05DF853
:108A000004FB6FF01200F9E7A8990400E80C0020BD
:108A100037B50F4CA5682C21EB6820469847A0B9C4
:108A20002C212B696A462046984770B9094C00985A
:108A30002378834209D0C0B2207000F055FC20B9E1
:108A40002078FFF7B5FF1AF03EF803B030BD00BF45
:108A5000A8990400C8580020024B1870024819F069
:108A600069B900BF5D0C0020A803002008B50448C8
:108A700001F054FA002818BF6FF0150008BD00BFC0
:108A8000598A0200014B1878704700BF5D0C002026
:108A9000084B1B780B2B4FF001000AD8984010F4BC
:108AA0001A7F05D110F4016F0CBF01200020704720
:108AB000022070475D0C002010B50948094C18F0E1
:108AC000E5FB206048B1084B08494D2214F0B0FC8A
:108AD00020681FF046FC002010BD6FF01500FBE77A
:108AE000B9B50400982E0020949F0400BFB504007F
:108AF000014818F081BF00BF5C0E002038B5044665
:108B00000D46FFF7BFFF0B280BD8DFE800F01E1E55
:108B10000A0A1E060A0A0A0A0A1EBDE8384001F0BF
:108B2000C7B94FF476720023094818F08BFF094843
:108B30002146006800232A461FF01DFC044610B1A0
:108B4000034818F059FF204638BD6FF01204FAE7C9
:108B50005C0E0020982E002007B5064B00930649B6
:108B600006480A234FF4407219F0EAF8002003B0D7
:108B70005DF804FBA89F0400985C0020C811002049
:108B800000487047C81100200148FEF72FBF00BF02
:108B90009099040010B5094C0A44914200D110BDCF
:108BA00011F8013B584003090001E35CC0B24340A7
:108BB00018091B01205CDBB25840EEE724B6040024
:108BC000014B1B68184700BFB803002007B50B46D0
:108BD000002102460091034800F02AF903B05DF835
:108BE00004FB00BFC18B020030B587B00025CDE982
:108BF00003010446009503A90548059500F018F9FE
:108C0000DDE904309842B8BF255407B030BD00BF3D
:108C10001F3104002DE9F047058B044628079046D4
:108C200011D4022905F0070540F0CD8020461AF046
:108C3000BEFA78B10138218B042811D8DFE800F0A2
:108C4000C3106D85950001290CBF45F0100545F056
:108C50002005258388F31188BFF36F8FBDE8F08767
:108C600001F0070AAA4500F0A6800027B9463E4653
:108C7000A368002B00F0BD8041F00801218388F338
:108C80001188BFF36F8FA168002900F0BB800D68C9
:108C9000002900F0B780D1F80480334652462046C0
:108CA000C047002D76D02B6829461D46F0E701F01D
:108CB00007035A1F012A1BD8002221F00701062BA7
:108CC000276889B2C4E9002209D13B4603E0628BE0
:108CD000013262831B68002BF9D141F0020121832C
:108CE00020461AF064FA00287BD041F0200177E09A
:108CF000042B0AD121F0070189B2218320461AF002
:108D000056FA10B141F020012183218B01F0070AAE
:108D1000AA4550D00027B946AAE7236921F00701E8
:108D200041F00601062DD3F8009021832DD1B9F131
:108D3000000F40D041F00801218388F31188BFF370
:108D40006F8F3A492046C84729E021F0070123697F
:108D500041F0040189B2042DD3F804902183E6D0B8
:108D600000273E464FF0040A82E721F007012369FD
:108D700041F0050189B2052DD3F808902183D6D0A2
:108D800000273E464FF0050A72E700273E464FF0A7
:108D9000060A6DE72B4687E7B9F1000FD1D14FF0F6
:108DA0002003EFF3118883F31288BFF36F8F238BB7
:108DB00023F008032383258BEA062ED525F0100324
:108DC000238305F007056669218B002EBFF66FAF80
:108DD00000232768C4E9003321F0070141F00101B5
:108DE0002183218B01F0070AAA454FF000097FF487
:108DF0003FAF002F9BD041F00801218388F31188F9
:108E0000BFF36F8F002FC7D03D68394633465246B7
:108E100020461AF0F8F92F46F4E7AB067FF51AAFB3
:108E200025F02003238305F00705FFE63332040015
:108E30002DE9F04F8DB01D46531E824601910393DC
:108E40004FF00009039B5878252803F1010419D13C
:108E50001E4600204FF0FF3802360346029044467B
:108E600031780396392954D81F2914D8002900F0E5
:108E7000F08101992520D04701993078D04709F138
:108E80000209DFE7002800F0E4810199D04709F1E9
:108E900001090394D6E7A1F12002192AE9D801A714
:108EA00057F822F00D8F0200738E0200738E0200BD
:108EB0000D8F0200738E02008D8F0200738E0200F0
:108EC000738E0200738E0200738E0200D98F02002F
:108ED0000D8F0200738E0200ED8F0200998F020049
:108EE000738E0200A78F0200C78F0200C78F020097
:108EF000C78F0200C78F0200C78F0200C78F020012
:108F0000C78F0200C78F0200C78F020008460136D4
:108F1000A6E7582900F0EE80A1F16302D7B2172F1F
:108F2000A7D8172AA5D801A757F822F09B910200CD
:108F300013900200738E0200738E0200738E020083
:108F4000F38F020013900200738E0200738E0200F2
:108F5000F38F0200738E0200738E0200738E020084
:108F6000CF900200738E0200738E02006F91020098
:108F7000738E020013900200738E0200738E020043
:108F8000CF900200738E0200F38F0200019925201A
:108F9000D04709F1010955E7029A02F0FE02029258
:108FA0004FF00008B3E7002C0DDAB8F1000F0DDA2E
:108FB000029A002A00F0458124EAE4740A2202FBA6
:108FC0000414303CA3E7B8F1000FF5DB0A2202FBE2
:108FD0000812A2F130089AE7B8F1000F55F8042BF7
:108FE00080F23181002A80F23081544202220292C2
:108FF0008DE7682903D1682B06D1482387E76C29C0
:1090000002D16C2B00F02381002B7FF432AF0B4692
:109010007DE77A2B06D1752955F8046B14D14FF0F2
:10902000000B0CE06C2BF6D04C2BF4D1073525F05F
:1090300007037529D3E9006B03F1080506D1202841
:109040003ED1864F013C09E04FEAE67BBBF1000FC1
:10905000F5DA7642824F6BEB4B0B013C0DF12D03A1
:10906000059300230493304659460A220023FDF756
:1090700047F8049B03F1FF3CCDF810C0DDF814C0A5
:1090800030320CF8012DCDF814C0B4465A46BCF16C
:109090000A0F72F1000206468B46E4D2C3F1010BBF
:1090A00030330DEB0306B8F1000FA6F104066DDABC
:1090B000029BD9077CD4A8EB0B03A4EB0B0413E0B1
:1090C0002B280ABF674F684F04F1FF34C6E77029A9
:1090D0000FD155F8042B0023FAB9644E053C6FF00C
:1090E00004034FF0050B604F029A92076FD4A0461D
:1090F00065E078216C2B03D155F8042B002308E0A0
:109100004C2BF9D1073525F007031D465B6855F850
:10911000082B232825D1880621D5554F023C01F084
:109120006001A1F1390B0DF12D0E002602F00F01A7
:10913000092988BF594430310EF8011D102A4FEA21
:10914000121141EA03714FEA131073F1000306F1A3
:10915000FF3C08D2C6F1010B06F13003A1E7454FF1
:10916000DCE7414FDBE766460A460346DEE755F893
:10917000046B30461CF0F6F8B8F1000F834602DBB2
:109180004045A8BFC346384F4FF00008A8EB0B037B
:10919000002B92DDA4EB0804A6E755F8043B8DF8FC
:1091A0001830013C4FF0FF334FF0010B06AE9AE749
:1091B000A046EBE7029301992020D047029BB8F12B
:1091C0000108F7D524EAE472013C9144A41AB84698
:1091D00006E0049302920199D047029A049B9046BC
:1091E000424612F8010B0028F3D11A46013A15D570
:1091F000002BACBFC7EB03077F425B46013B15D595
:10920000BBF1000FA8BF5F444F442646013E14D572
:10921000002CA8BF3F1907EB080913E6049302923C
:1092200001993020D047049B029ADFE7029301990D
:1092300016F8010BD047029BE0E701992020D047A8
:10924000E4E70122D3E6904661E614465FE64C234C
:109250005DE648460DB0BDE8F08F00BF36B60400AD
:1092600034B6040038B6040078BB040040B60400ED
:109270003AB604003DB6040008B54FF02002EFF303
:10928000118382F31288BFF36F8F02F0FBF803485B
:1092900019F058FF01F09CFDFCE700BF46B6040042
:1092A00016F0AAB91FB507240294044C0194BDF826
:1092B000184000941EF046F904B010BD5E0C00206A
:1092C00010B5084C86B024788DF81740012402941C
:1092D0000DF117040194BDF8204000941EF032F9FE
:1092E00006B010BD650C002000B589B064288DF86B
:1092F000070019D80E4B18221870002102A81CF084
:1093000073F80C4B03930DF10703049302A9012397
:109310000020ADF8143006F0D1FA10F1800F08BF2C
:10932000002009B05DF804FB6FF01500F9E700BFFD
:10933000650C002050A004002DE9F7430F460646B7
:109340000821C06ADFF850901AF0B4FA3C68241A79
:1093500080463C6004EA0905AC4203D8002003B013
:10936000BDE8F08308236A46214630461AF015FA14
:109370000028F4D1694630461AF0A6FA40B1BDF88B
:109380000230BDF804203C6005EA090513441D4481
:10939000A4EB0804E0E700BF0000FFFF2DE9F04761
:1093A000044688B000F1140738461FF0C1FCA06ADB
:1093B0008368DB689847E06228B96FF01505284696
:1093C00008B0BDE8F087A06A8368DB689847036847
:1093D000013B1F2BF1D8A06A216805AA1FF0C2F932
:1093E0000028EAD1A589002DE7D0069BB5FBF3F252
:1093F00003FB1255002DE0D1E389012BDDD9E36A8F
:10940000009593F804904FF0FF334FF0FF32384649
:1094100018F008FAE06A08211AF04CFAA846064645
:10942000E3891FFA85FA534508D8E389434523D1D8
:10943000384618F071FA6FF02C05C0E7A1892B04AB
:10944000891B13FA81F14A460823204600911AF03D
:10945000E9F978B1694620461AF0ADF908F101083A
:10946000009908234A4620461FFA88F81AF0DAF9CC
:109470000028DAD00135D3E753450BD100990823F2
:109480004A46891B20461AF0CDF918B9694620468C
:109490001AF091F969462046FFF74EFF054618B1CC
:1094A000384618F039FA8AE7009B63604FEA1348A0
:1094B0004FEA0848C4F80880D4E9011399420FD351
:1094C000082301AA20461AF068F905460028E7D1CA
:1094D00001AB13F8012B914533D10135082DF8D19B
:1094E00063681B0C1B046946204600931AF063F95D
:1094F000A38900994A4620461AF094F9051ECFDB4D
:10950000636876D006EB03084FF6FF79A389CDF8A0
:1095100000801FFA88F29B1B9A422ED300236168B9
:10952000002B43D0090C09040091204669461AF02B
:1095300042F9009920461AF09AF90546002D74D098
:10954000AEE701A920461AF0BFF9626810B9921B74
:109550006260B1E7BDF80850BDF80610E06AC4F8D3
:10956000088029441AF0A6F940449042A060EED148
:10957000002DECD06FF01C0568E0082303AA4146DB
:1095800020461AF00AF90546002889D103A9204689
:109590001AF09AF930B1BDF80C304B4502D1BDF844
:1095A00010300BB1B044B1E70123B8E720461AF000
:1095B0005EF9054600287FF473AF6368264AA189E7
:1095C00013400B44A3EB460363601340A3602046A3
:1095D0001AF05CFAB1E75B1A4A4620461AF022F903
:1095E000051EFFF65DAF08D0E26AA3681268134457
:1095F000A360D4E901318B42EDD86168A38901EB06
:1096000046029A429AD1DFF85080A26801EA080324
:109610009A4293D020461AF02AF9054600287FF492
:109620003FAF636803EA0803A360A389A288A3EBA2
:1096300046039A4206D0384618F06EF90123237487
:109640000025BCE620461AF00CFA0546384618F00C
:1096500063F9002DF2D0B2E60000FFFF2DE9F04FD4
:109660001D46037C89B0044689469046002B00F0D5
:10967000BD80C26A082110461AF01CF929468246AC
:1096800010461AF017F9A389A3EB8A039D420746F7
:1096900000F2AF801DB1B8F1000F00F0AA8063683E
:1096A000039304AA03A92046DDF80CB01AF044F98C
:1096B0000646002865D1BDF810304B4505D06268DC
:1096C000039B9A42EDD1E5B95BE004A920461AF06C
:1096D000FBF80028F3D0BDF81200BDF8143075B1C6
:1096E0009D420ED14FEA1B41090401442B464246DC
:1096F00020461AF06DF8002803DC064641E0002BF6
:109700003FD0002F41D104F1140301934FF0FF32F9
:109710004FF0FF3304F1140018F084F8DFF8D8B0EC
:10972000E3899E425FD0D4E90123F9188A422FD3FE
:10973000ADF81A3006A8FF238DF81E30ADF818904A
:10974000ADF81C501AF0ADF8A1682B4642462046F1
:109750001AF03CF929468246E06A1AF0ABF8A26892
:109760000244A260BAF1000F07D106A920461AF000
:1097700067F9002814BF8246AA46019818F0CCF871
:109780005646304609B0BDE8F08F5744BFB2BAE73D
:109790000821E06A1AF08EF84FF6FF73ADF8183022
:1097A0000023ADF81C301318ADF81A30A38902EA73
:1097B0000B021A44101A606006A81AF072F806A983
:1097C00020461AF03DF9211D204619F0F4FF636888
:1097D00003EA0B03A36020461AF058F982460028DA
:1097E000CBD101369CE76FF01B0AC6E76FF00C0681
:1097F000C7E76FF01506C4E70000FFFFF0B40C4B9D
:109800000C4E5F6A0C4BB34203D36FF08500F0BC83
:1098100070475D68BD4209D31C693CB195F802C030
:109820000579AC4502D12346F0BC18472433EAE75A
:109830009C2E002094100020701000202DE9F0478D
:10984000134CDFF85080DFF8509005460E4617465F
:10985000444503D36FF08500BDE8F0876268D9F80E
:1098600024309A4212D3A36983B19078297988422F
:1098700005D13A4631462846BDE8F04718475279A7
:10988000012A03D13A463146284698472434DFE777
:1098900070100020941000209C2E00202DE9F04133
:1098A0000B4CDFF8308005460E461746444502D380
:1098B0006FF0850009E063690BB92434F6E73A4696
:1098C0003146284698470028F7D1BDE8F08100BF0F
:1098D000701000209410002007B583788DF80030B8
:1098E0000379427943EA0223ADF80230C37868462F
:1098F00003F003038DF8043014F068F910F1780FC9
:1099000004D018B1002003B05DF804FB9DF80000FE
:1099100014F0E4F910F1780F01D00028F2D1024BD5
:10992000012083F8B900EEE79C2E002002480822AF
:1099300000211BF059BD00BF572F002070B50B4B05
:109940000B4CA34201D3002070BD196A1E7F002278
:109950000439D5B2AE4201D82433F2E7013211F80E
:1099600032508542F5D10120EEE700BF7010002093
:109970009410002008B509480378C3F341130A3353
:1099800050F823303BB100F1080200F11001984774
:10999000C043C00F08BD1846FCE700BF9C2E002046
:1099A00004282DE9F047DFF88C8004460E4613D1D9
:1099B000FFF7BCFF204B93F8B930ABB100F0FEFCD1
:1099C0001E4D454526D2D5F8209000272A7FFBB2B0
:1099D0009A4217D82435F4E7052810D1164B93F88E
:1099E000B9300BB100F0EAFC144D454517D3124BCA
:1099F0001B6AE3B131462046BDE8F047184701280D
:109A0000F2D1D7E709EBC3030137187914F090F9C5
:109A10000028DBDA084B002283F8B920E4E7EB6882
:109A20001BB132462146284698472435DDE7BDE87C
:109A3000F08700BF941000209C2E002070100020A2
:109A400073B5C4B263060D468DF8074007D02046B3
:109A5000FFF774FF78B10D4B93F8BA0058B10B4E75
:109A6000204655B114F0D6F8F3691BB10DF107018A
:109A700008209847012002B070BD14F0F3F8F36994
:109A8000002BF7D00DF107010920F2E79C2E0020F2
:109A90002DE9F047A44EB36904460F461546FBB9BD
:109AA000237803F01F03012B00F09D80022B00F0B0
:109AB000078133BB94F900002A686178002834DA02
:109AC000062912D008292BD0D9B90123137051705F
:109AD00096F8C3305B0043F00103137002232CE1BE
:109AE00098470028DCD100200DE06288100A011F91
:109AF0000129844605D9072803D8716AD2B20C78A7
:109B00001CB96FF01500BDE8F0874E78664503D1AB
:109B10009A4200F00D8101332144F0E70B780CE10B
:109B200096F8BA301370012307E101390829E8D803
:109B300001A353F821F000BFD19B0200039B020058
:109B4000DF9B0200039B02005D9B0200039B02005F
:109B5000039B0200039B0200699B0200A07814F0A3
:109B600023F80028BFD0CCE76388756A63BBFFF792
:109B7000DDFE638886F8BA30F369002BB3D06B49F9
:109B800003209847AFE76B78042B10D0052B11D03A
:109B9000022B04D16F796388BB4208BF01202B7868
:109BA0001D442B78002BEED10028AAD0DFE795F8D2
:109BB0000380F4E76388BB42F1D1B8F1000FEED126
:109BC0002846FFF789FEEAE7FF270020B846E8E7C6
:109BD0006388012B95D1002386F8C33083E763881F
:109BE000012B8ED1F8E796F8BA30D5F800C0002BDB
:109BF00087D0756AA38894F804E02A461078002874
:109C00003FF47FAF5178022904D192F80480F045E7
:109C100000F295800244F1E78CF800208CF80120D6
:109C2000396060E7154496E00B2A7FF46AAF00279D
:109C30004FF0FF08C146BA4606E06B78042B0FD000
:109C4000052B21D02B781D442B78002BF5D1F369FF
:109C500013B1514607209847002F7FF444AF50E7D7
:109C600095F80280A38895F803909845EAD1638817
:109C70009945E7D1B8F1070F1FD806EB0803AA46AC
:109C800083F8BB900127DDE7A3884345DAD1A378A9
:109C90004B450DD0AF78384600F072FB384614F0D3
:109CA00047F810F1780FEDD0B0FA80F77F09C9E7D7
:109CB0002846FFF711FE0746C4E7AA460027C1E77A
:109CC00094F900206378002A18DA002B7FF419AF8A
:109CD00024792D6863060AD02046FFF72FFE00285E
:109CE0003FF40FAF96F8BA30002B3FF40AAF294685
:109CF000204613F0D7FF00236B70EFE6012B08D04E
:109D0000032B7FF4FEAE6388002B7FF4FAAE0121B3
:109D100003E0618800297FF4F4AEA088FFF790FE8D
:109D200000287FF4E0AEECE69C2E0020562F0020A9
:109D3000022829607FF4F2AE4B883B60D3E694F9A9
:109D4000000062780028BFF66FAF002A3FF464AFCE
:109D50000A2A7FF4D6AE2A78002A3FF4D2AE697878
:109D600004297FF45FAFA9788B427FF45BAF072BA8
:109D700096BF9B19002393F8BB308CF80030D2E6D5
:109D800013B5134C237DCBB9E268A168019201ABF6
:109D9000802019F0B3FF019AA3681344A360E3681D
:109DA0009B1AE36043B93AB12369E2889A4203DD22
:109DB0009B0601D10123237502B010BD00231A4672
:109DC00019468020237502B0BDE8104013F0D6BFBD
:109DD0009C2E002030B585B0002302460D4601932D
:109DE000002858D1002935D108220B460DEB02017D
:109DF0001EF000FB002804DA802013F00BFF05B0F2
:109E000030BD2A4C029A2260039A626004F1380243
:109E1000A2609DF90820BDF80E302575002AC4E91E
:109E200003550ADB802B04D9802013F0F3FE0020B9
:109E3000E3E713B1C4E90333E1E7FFF79BFD002833
:109E4000DAD0E28823699A42D4BFE260E360FFF788
:109E500097FFD4E7154CD4E90215002D01AB04DCC3
:109E60001EF0C8FA0028CADAC6E72A461EF0C2FA6F
:109E70000028D9DB019AA3681344A360E3689B1A06
:109E8000E360002BBBD104F13803A360FFF772FD40
:109E90000028DCD1B0E78028B1D1044BDA68002A71
:109EA000D5D11B7D002BD2D1A9E700BF9C2E00206D
:109EB000044B93F8C3300BB11EF0ABBA6FF00C003B
:109EC000704700BF9C2E0020054B064A9A62064A46
:109ED000DA62064A1A63064A58629A61002070479D
:109EE0009C2E0020919A0200FD9702009D9802008E
:109EF0003D98020010B5084B93F8B84034B900F013
:109F0000CBF830B1FFF7E0FF204610BD6FF07700CF
:109F1000FBE74FF0FF30F8E79C2E00202DE9F341DE
:109F20000446354D35484FF0FF324FF0FF3317F000
:109F300079FC95F8B860002E5BD131482C62E8615D
:109F400014F036F813F0F2FD041E36DB00F05AFA76
:109F5000041E32DB40236846ADF802308DF8046001
:109F60008DF8006013F032FE041E26DB8027684661
:109F70008DF8007013F02AFE041E1EDB21493046C6
:109F800014F002F8041E18DB1E49384613F0FCFFDB
:109F9000041E12DB1C4CDFF87480444514D30020EF
:109FA00013F09CFE041E08DB802013F097FE041EB5
:109FB00003DB012385F8B8300024104817F0ACFC0F
:109FC000204602B0BDE8F081276A0026227FF3B266
:109FD0009A4201D82434E0E707EBC30257F8331064
:109FE000107913F0D1FF01360028EFD04FF0FF3485
:109FF000E3E76FF07704E0E79C2E0020B80D002027
:10A00000A1990200D59D020070100020941000203C
:10A0100030B51F4B8BB005AA03F1100518685968BD
:10A02000144603C40833AB422246F7D11B78237091
:10A030001022002101A81BF0D7F912220021154897
:10A040001BF0D2F9102101A81EF0EAFA00281BDD4E
:10A050000828B8BF0820093801AB0E491A1800209B
:10A0600012F8013F0AAC04EB131403F00F0328337A
:10A070006B44013014F8144C13F8143C0C7008288D
:10A080004B7001F10201EBD102480BB030BD00BFB3
:10A090007BB60400C95800202DE9F04F644C85B010
:10A0A00000264FF0011BB1463546B24623782BB946
:10A0B000604B02349C42F3D15D481CE06378052B71
:10A0C00005D8DFE803F07B04037B0725A24623784D
:10A0D0001C44EBE7E378002BF9D1A37873B109F1C5
:10A0E00001095FFA89F9F2E76A68944209D02435D8
:10A0F0009D42F9D3002005B0BDE8F08F4E4D4F4B87
:10A10000F6E7AB68002BEAD0494620469847E6E7D9
:10A11000002DEFD0002301212A7F9342EAD22A6A40
:10A12000A77802EBC3021079874201D00133F3E72D
:10A130000127E07800F003008DF80C00207994F8F6
:10A1400005C040EA0C20ADF80A0094F9020000288E
:10A150005FFA87F827DA07F1100001FA00F010EA39
:10A160000B0F27D148F080008DF8080002A8CDE938
:10A1700000321EF027F9DDE900320121D0B99DF847
:10A180000830A37013F0800F18BF08F11008137186
:10A1900018BF5FFA88F80B460CBFBB4001FA08F302
:10A1A0004BEA030B93E701FA07F010EA0B0F01D11A
:10A1B0004046D9E70137102FBBD1B7E7032E1DD199
:10A1C000FFF726FF074668B11BF0CCF8804648B180
:10A1D0001B481BF0C7F8804504D142463946A01CF5
:10A1E0001BF0F7F823786FF00201E218091B04EB6B
:10A1F0005303D14213D50136F6B268E7002EF1D1F0
:10A20000BAF1000F3FF476AFA4EB0A038AF80230EC
:10A21000C3F307238AF803308AF80490EBE74FF082
:10A22000000002F8010C13F8010902F8020DE0E742
:10A23000DC0F00206E100020701000209410002011
:10A240007BB6040010B5094B00211A461C788442E5
:10A2500005D15C681CB1482303FB012010BD01310E
:10A26000042903F14803F1D10020F7E7602F002013
:10A270002DE9F34150F8303C10F8346C10330446AB
:10A2800010D1036950F8282C99073CD502BB13F074
:10A29000040304D11A461946304619F02FFD002355
:10A2A00044F8303C54F8303C10330ED054F8205C65
:10A2B0005DB154F8247C54F81C8C1EF01FFD00285E
:10A2C0004CD02E4821461EF0DBFE02B0BDE8F081E6
:10A2D00050F82C1C01AB304619F010FD10B16FF096
:10A2E0001503DDE7019A54F82C3C134444F82C3C48
:10A2F00054F8283C9B1A44F8283C54F8243C134456
:10A3000044F8243CCEE750F82C1C01AB304613F047
:10A31000B1FD0028E3D1019D54F82C3C2B4444F8B6
:10A320002C3C54F8283C5B1B44F8283C54F8243C53
:10A330002B4444F8243C002DB1D0304613F03EFEAF
:10A34000B5FBF0F303FB1055002DA8D154F8283CC1
:10A35000002BA4D0304613F0D5FDA3E744F8200C21
:10A36000A4F1180017F048FB54F8303C8C33ACD003
:10A37000424639463046A847A7E700BFB02D002027
:10A3800010B54FF02003EFF3118483F31288BFF36D
:10A390006F8FFFF757FF50B14368103307D16FF04D
:10A3A0008B03436000F1340103481EF069FE84F31F
:10A3B0001188BFF36F8F10BDB02D002070B50F4C0A
:10A3C00004254FF02003EFF3118683F31288BFF3C7
:10A3D0006F8F6368103307D16FF08B030848636099
:10A3E00004F134011EF04CFE86F31188BFF36F8F29
:10A3F000013D04F14804E4D170BD00BF602F00208E
:10A40000B02D002070B50A4C0A4E0025314620467A
:10A410001EF009FE0122A4F11800114601351EF0BC
:10A4200080FD042D04F14804F0D1002070BD00BF70
:10A43000942F002071A2020070B5114B1C680D46CC
:10A44000DCB1104B196800238B4202DB6FF0010076
:10A4500070BD224612F8106B864202D001331446BA
:10A46000F2E7E06810B96FF01200F1E71EF060FB50
:10A470000028F8D02C600020EAE76FF00C00E7E736
:10A480001C0400208CA0040070B588B005460C4662
:10A49000C0B269461646FFF7CFFF00281BDB0098C5
:10A4A000C8B143680293836822680195CDE90336F9
:10A4B0000023CDE906230593C56819F067FC6DB14B
:10A4C0002846084901AA1EF051F9079808B9059BCA
:10A4D000236008B070BD6FF01500FAE76FF012004E
:10A4E000F7E700BF8F3D04002DE9F0410F4B1C68DA
:10A4F00005460E461746ACB14FF0FF324FF0FF3322
:10A500000B4817F08FF963683246D3F80880294664
:10A510003B462046C0470446054817F0FDF9204653
:10A52000BDE8F0816FF00104F9E700BF8030002042
:10A53000A40D002000230360044B5A6812B9C3E93C
:10A540000000704710605860704700BF84300020E2
:10A55000014B1860704700BF8030002030B585B0D7
:10A5600000230546CDE9023301904FF0FF330C483C
:10A570004FF0FF3217F056F90A4B1C684CB92846C9
:10A5800000F0CEF80446064817F0C6F9204605B09C
:10A5900030BD636820461B6801A998472468EDE731
:10A5A000A40D0020843000201FB5CDE901010392E5
:10A5B0004FF0FF330A484FF0FF3217F033F9094BE1
:10A5C0001C682CB9064817F0A7F9204604B010BD46
:10A5D000636820461B6801A998472468F1E700BF1B
:10A5E000A40D002084300020024B0022C3E9002289
:10A5F000704700BF84300020024B0022C3E90022D4
:10A60000FFF7F2BF8C30002070B51B4C1B4E054687
:10A61000B44212D31A4E1B484FF0FF324FF0FF33B3
:10A6200017F000F934687CB1286854F8141C143C05
:10A630001AF09FFEC8B16469F5E7216828681AF02E
:10A6400098FEA8B11434E3E700226A61726805F14C
:10A6500014033AB9C6E9003300240A4817F05CF93C
:10A66000204670BD13607360F6E76FF01004F4E7E6
:10A670006FF01004F4E700BF709C0400E89C040035
:10A680008C300020A40D00202DE9F74307460C462E
:10A6900009B100230B601F4DDFF87C9000264D456B
:10A6A0000FD31E4B1D6885B355F8148C01AA414683
:10A6B0003846143D19F091FB10B3D6B914BB2E46A1
:10A6C0001EE0D5F8008001AA4146384619F085FB06
:10A6D00050B116B954B92E4606E031680022404602
:10A6E00019F07BFB0028F5D11435D8E7019B2360D6
:10A6F000F1E731680022404619F06FFB0028DDD1F8
:10A700006D69D0E7019B2360D9E7304603B0BDE80F
:10A71000F08300BF709C0400E89C04008C30002093
:10A72000F8B5184C184F06460025BC4208D3174B05
:10A730001C682CB3143CB6B9E368E3B96469F8E764
:10A740002EB9E3685BB9284614340546EDE7206866
:10A750000022314619F041FB0028F2D1F3E7984777
:10A76000002DF0D1F0E720680022314619F035FBCA
:10A770000028E1D1E2E79847002D08BF0546DDE754
:10A780002846F8BD709C0400E89C04008C30002032
:10A7900010B5074C23780BB1002010BDFFF72CFF3C
:10A7A00000F066F80028F8D101232370F4E700BF19
:10A7B000DB5800202DE9F047048FDFF8B0A001340A
:10A7C00098B080468946A4B200F10806651EADB275
:10A7D000B5F5004F47D04A2305AA2946304619F05F
:10A7E00086FA04F57F543F34A4B20746214601237C
:10A7F0000DF10B02304619F07AFA002F014603DC06
:10A80000002803DC2C46E1E7002816DCB8F83830D5
:10A81000AB4209D142466B1E22F8383F4FF400414B
:10A8200002233046FEF71AFF2946304619F0FBF99D
:10A830002146304619F0F7F9E4E707F160030DEB24
:10A840000307002307F84C3C5246CDF8009003ABB9
:10A8500005A80396ADF8104019F0F5FA0028D1D0FC
:10A8600018B0BDE8F0870020FAE700BFB53E04004D
:10A870007FB50123694602200193FFF7DDFD044601
:10A88000002834D102AA01A90220FFF7FDFD10F132
:10A89000130F04462BD038B10C3405D0404080F360
:10A8A00011884FF0040002DF0399B1F5803F23D2F5
:10A8B000009A002394681846084484421AD301334E
:10A8C000082BF9D10E4DA982EB825368AB60284664
:10A8D000D368EB6319F088FB044640B9094E6E60FB
:10A8E0002846FFF727FE28466E60FFF731FE204618
:10A8F00004B070BD9BB2E5E76FF02004F7E700BF3E
:10A9000094300020200400202DE9F84305464FF044
:10A910002003EFF3118683F31288BFF36F8F0E4B82
:10A920000E4F1C68DFF838804FF00C092CB986F305
:10A930001188BFF36F8FBDE8F883D4E90123002DA0
:10A9400018BF13462BB198F8142009FB02F2B85C2B
:10A9500098472468EAE700BFEC300020E030002090
:10A960008457002070B5194B1C7DBFF35B8F04F03A
:10A970001F0301229A40164B610903EB8103D04368
:10A9800053E8001F01EA000543E80056002EF7D106
:10A99000BFF35B8F0A4213D00E4B0F4D8BB10C23CC
:10A9A0006343EA18E85C51781AF040FD0020FFF795
:10A9B000ABFF0C235C432A1900232B51C2E901335E
:10A9C00070BD83F31188BFF36F8FEFE784570020CA
:10A9D000F43000202D540400E03000202DE9F04137
:10A9E000354B07461D7D4FF02003EFF3118883F3AD
:10A9F0001288BFF36F8F0C24304B314E6C431A1901
:10AA0000195D00294CD007CA06EB040C8CE807003E
:10AA100000221A5588F31188BFF36F8F0C236B4304
:10AA2000F218F05C002839D07B1C10D0D2F808C096
:10AA3000244C254A4FF400400021ECFB0041002348
:10AA40002046FBF75DFB0121381A1EF0BEFC17F013
:10AA500021FC0120FFF758FFBFF35B8F1B4B6A09F6
:10AA600003EB820305F01F0101228A4053E8000F27
:10AA7000104343E800010029F8D1BFF35B8F144B6A
:10AA80003BB10C2303FB05F03318305C59781AF006
:10AA9000C1FCFFF767FF17F011FC0120BDE8F08152
:10AAA0000146284600F016F80028B3D007C8344401
:10AAB00084E80700AEE700BF84570020D4300020B0
:10AAC000E03000203F420F0040420F00F4300020F1
:10AAD000155404002DE9F04F85B00E4603A900F08F
:10AAE00043F81E4B039DD3F800A0DFF87480431E8B
:10AAF0001BB203EB4303044605EB83054FF4004709
:10AB00004FF0000B24B9A146484605B0BDE8F08FD0
:10AB10006868144AC4465946E0FB07C100236046F2
:10AB2000FBF7EEFA0190A8680E4AC4465946E0FBCE
:10AB300007C100236046FBF7E3FABAF1FF3FA946DD
:10AB400001D0824505D9731CDED0019B1844B04268
:10AB5000DAD9013CA4B20C3DD4E700BF3404002094
:10AB60003F420F0040420F0008B9024B0B6000202B
:10AB7000704700BFD0A00400014B1868704700BFA9
:10AB800038040020F0B5082289B019F004FCCB6A23
:10AB900003930B6B04934B6B05938B6B0693CB6BFF
:10ABA000079313466A460C46064600271146104690
:10ABB000CDE90177009719F0FCFA31460546304699
:10ABC00019F0F7FA216B0391616B0491A16B059168
:10ABD000E16B0544CDE906171046114619F0E9FA74
:10ABE00031460544304619F0E4FA0544206A0090E5
:10ABF000606A0190A06A0290A06B0690E06B0790DB
:10AC00003046CDE90477039719F0D3FA0544606A1A
:10AC10000090A06AD4F838C00190E06A0290CDF8A4
:10AC200010C0606BD4F83CC00390CDE905C0206A29
:10AC30000790304619F0BDFA0544E06A0090206B99
:10AC40000190606B0290206A0690A06A07903046DF
:10AC5000CDE90477039719F0D1FB236B0093636B65
:10AC60000193A36B0293E36B0393636A0693E36A16
:10AC700007932D1A0823304619F0C0FB636B00932D
:10AC8000A36B0193E36B0293236A0393636A0493B8
:10AC9000A36ACDE90537236B07932D1A08233046A5
:10ACA00019F0ACFBA36B0093E36BCDE90137636A4A
:10ACB0000393A36A0493E36A0593636B07932D1AC6
:10ACC0000823304619F09AFB2D1A10D40D4C35B9D3
:10ACD00008223146204619F06AFB01280FD00823CC
:10ACE00022463146304619F089FB2D1AEFE7054A16
:10ACF00008233146304619F05CFA2D18F8D409B013
:10AD0000F0BD00BFD4A004000449431E0F3013F867
:10AD1000012F8A5C1A708342F9D170478CB6040007
:10AD2000F0B5264E07460C460FCE8DB001AD0FC5CF
:10AD30000FCE0FC596E8070085E807003846002FBC
:10AD400038D0002C38D0381F2146024610344B78BA
:10AD50000D781B0443EA0563CD782B438D780431CD
:10AD600043EA05238C4242F8043FF0D1144C0421FD
:10AD70008A07036916D1C3F30742A55C1A0EA25CC9
:10AD800042EA0562C3F30725DBB2655DE35C42EA94
:10AD9000054242EA032221F0030330336B4453F8A7
:10ADA0002C3C534050F8042F013153402C290361AF
:10ADB000DED101200DB0F0BD2046FBE7049D04006C
:10ADC0008CB60400014910220A60704710ED00E0C3
:10ADD00072B6404080F31188BFF36F8FBFF34F8F7F
:10ADE00030BF62B6BFF36F8F704700BF72B6494085
:10ADF00081F3118820BF80F3118862B6704700BFCD
:10AE000040B2002807DB044A4109012300F01F007B
:10AE1000834042F82130704700E100E040B2002852
:10AE20000CDB4309064900F01F0020330122824059
:10AE300041F82320BFF34F8FBFF36F8F704700BFE0
:10AE400000E100E0054B420900F01F0053F822200A
:10AE5000012303FA00F01040704700BF00E100E05A
:10AE600040B20028A8BF00F1604001F10101B8BF65
:10AE7000064B4FEA4111ACBF00F5614000F00F00F6
:10AE8000C9B2B4BF195480F80013704714ED00E044
:10AE900008B572B6044B9A691AB100229A611DF086
:10AEA00038FF62B608BD00BF8457002030BFFFF7EF
:10AEB000FDBF00BF0F4A08B50F4B22F07F029A601A
:10AEC000BFF34F8FBFF36F8FD3F8882022F4700247
:10AED000C3F88820EFF3148323F0040383F314886A
:10AEE000BFF36F8F16F01CFA17F024FB00F09CF9EB
:10AEF00016F056FA0060020000ED00E0094A0A4927
:10AF000093680968D967094998674B6843F080538B
:10AF10004B60002383F31188BFF36F8F9368D86F62
:10AF2000704700BF84570020F4B2040000ED00E039
:10AF30000F498A684FF030001044EFF3098C80E825
:10AF4000F01F202080F31288BFF36F8F094F4FF05E
:10AF50000066CA698A603E60906F0023936780F341
:10AF6000118802F1300090E8F01F8CF309887047D7
:10AF70008457002004ED00E01EF0040F0CBFEFF337
:10AF80000880EFF30980816911F8021C0229FFD0C3
:10AF900001B51AF057F901BD42F8203C009B42F878
:10AFA0001C3C0A49019B42F8183C029B42F8143CA5
:10AFB00021F001014FF0807342F8043C42F8081C74
:10AFC0000023203A02658367704700BFA73304005F
:10AFD000074B9860104681F30988002163B681F31E
:10AFE0001188BFF36F8F0022002318F0DCF900BF37
:10AFF0008457002001B572B60B4A906900281EBF25
:10B00000002191611DF085FE62B6EFF30580A0F18D
:10B0100010004FEAC0000549014409C99847BDE83E
:10B02000014003490847000084570020389A040073
:10B0300035B00200044B9968D869884203D00349AF
:10B040004FF080520A6070478457002004ED00E002
:10B050000D4B9A6A9A6A9A6A920508D59A6B9A6A0F
:10B06000120404D518B19A6A22F400429A629A6ACC
:10B070009A6AD205044A58BF9B6A936A002043F437
:10B080007F4393620870704700ED00E0114B9A6AAD
:10B090009A6A9A6A920708D55A6B9A6A120604D578
:10B0A00018B19A6A22F080029A629A6A9A6A9A6A37
:10B0B000D00658BF9B6A074B9A6A920642BF5A6AEB
:10B0C00022F400525A629A6A002042F0FF029A6209
:10B0D0000870704700ED00E070B5494B5B688AB0BE
:10B0E0000646C3F30803002585F31188BFF36F8F6D
:10B0F00002F07F40B0F17F4F11D102F00C00082820
:10B100000DD010074CBF0E4601250022033B8DF8E1
:10B110000720032B4CD8DFE803F00464686C2E464C
:10B12000F3E7374BDA6A910742D4DA6A002A3FDB49
:10B13000DA6A52003CD55A69B16942F480725A61A8
:10B14000BFF34F8FBFF36F8F5A6931F8021C22F49F
:10B1500080725A61BFF34F8FBFF36F8F4DF602724B
:10B16000914208D09A6AD2B23AB10DF1070101209A
:10B17000FFF78CFF0AE034681BE09A6A12F47F4FF5
:10B1800006D00DF107010120FFF762FF044610E031
:10B190009A6AB2F5803F0BD39A6A9A6A9A6A9A6A57
:10B1A0009A6A9A6A9A6A6FEA02426FEA12429A624D
:10B1B00000249DF8073093B92022314602A81AF0E6
:10B1C00008F9099BBDB1C3F3080222B96FEA532302
:10B1D0006FEA4323099302A920461AF031F80AB016
:10B1E00070BD0DF107010020C2E70DF1070100203D
:10B1F000CAE7034BD0E723F4FF7323F00103E9E729
:10B2000000ED00E0024A536943F0100353617047B8
:10B2100000ED00E0EFF30880EFF3098101B572461D
:10B22000FFF75AFF01BD00BF044800232021C218C8
:10B230000133302B82F80013F9D1704700E100E0B0
:10B24000FEF72EF8202080F3118808484FF40061A3
:10B25000401880F30988EFF314800221084380F33B
:10B260001488BFF36F8FFFF725FE0000907A00204F
:10B27000084B9B6883420BD1EFF3058343B1064B28
:10B280005A6842F080525A605A6A22F400425A6266
:10B2900017F0DEB88457002000ED00E0024B034AAF
:10B2A0000348012100F060B80000042000000020E5
:10B2B00080A10400F0B5204E00258D4239DA4468A3
:10B2C00074B353B104F1FF3C14EA0C0F2FD11F2CBF
:10B2D0002DD907681CEA070F29D1202C0768D0F860
:10B2E00008C05FFA82FE1ED9B4F1004F1DD8013CA0
:10B2F000B4FA84F4C4F11F046400BEF1070F4CEAF1
:10B30000040C14D827F01F04144344F01004C6F8AA
:10B310009820C6F89C404CF00104C6F8A0400132C9
:10B3200001350C30C9E70824E7E73E24E5E76FF074
:10B3300015021046F0BD00BF00ED00E0044B0522F1
:10B34000C3F89420BFF34F8FBFF36F8F704700BFD8
:10B3500000ED00E0BFF35F8F024B0022C3F89420A2
:10B36000704700BF00ED00E010B5034C01232278C8
:10B37000FFF7A0FF207010BDDC58002014490868BA
:10B38000082810B521D8FFF7E5FF124C49680022C4
:10B39000904201F10C0105D10F4B1870FFF7CEFF61
:10B3A000002010BDC4F8982051F80C3C23F01F0376
:10B3B000134343F01003C4F89C3051F8043C43F0AD
:10B3C0000103C4F8A0300132E2E74FF0FF30E8E7B4
:10B3D0008CA1040000ED00E0DC58002008B5024814
:10B3E00017F0B0FEFEE700BF8CB704000CB410B538
:10B3F00086B009B90DF10B000024CDE9040109ABB9
:10B40000089A009404A905480393FDF711FD049BD5
:10B410001C7006B0BDE8104002B07047FB5304003A
:10B420000EB410B587B009AB00246FF0004153F89B
:10B43000042B04900591009404A905480393FDF79B
:10B44000F7FC049B1C7007B0BDE8104003B07047C8
:10B45000FB5304004FF02003EFF3118283F31288B3
:10B46000BFF36F8F06490123C1F840354FF080418B
:10B47000C1F8783582F31188BFF36F8F00207047D1
:10B4800000E001404FF08043C0B2C3F81C05BFF399
:10B490004F8F0549054BCA6802F4E0621343CB6045
:10B4A000BFF34F8F00BFFDE700ED00E00400FA0599
:10B4B00020B1034B800143F001031847704700BFE0
:10B4C000809D0400F8B5594EBFF35B8F3468BFF31D
:10B4D0005B8F14F0010450D0554F564C564D5748D1
:10B4E0003A46214618F0B9FDE0B32022294620460D
:10B4F00019F05FFF0028F2D000274FF0FF324FF025
:10B50000FF33012000F070FA00F108050221044623
:10B5100028461CF0DFFE3E230370422343700121C6
:10B5200028461CF0D7FE08230370412128461CF052
:10B53000D1FE054600F8017BB7B14022002119F089
:10B5400053FFBFF35B8F56E8003F23F0010346E84B
:10B550000032002AF7D1BFF35B8F2046BDE8F840E8
:10B5600000F0FCBE1F27C8E7344919F0AFFF2031B7
:10B5700005F1210019F0AAFFE3E7BFF35B8F336801
:10B58000BFF35B8F9B0750D529492C4819F023FC4A
:10B59000002811DBBFF35B8F264933682648BFF3D1
:10B5A0005B8F13F0040F01F12002214B18BF0146FD
:10B5B000104618F0A1FD04464FF0FF324FF0FF3364
:10B5C000012000F011FA00F1080702210546384673
:10B5D0001CF080FE3E230370222343700121384675
:10B5E0001CF078FE09230370212138461CF072FEFE
:10B5F000034601309CB91F221A70FF21202219F046
:10B60000F3FEBFF35B8F56E8003F23F0020346E8EA
:10B610000032002AF7D1BFF35B8F28469EE7002255
:10B6200006491A7019F052FFEBE7F8BDF830002018
:10B63000ACA10400DD580020BBB70400FD58002079
:10B6400070B5214CBFF35B8F2368BFF35B8FDA07C4
:10B6500006460D4601D50C2070BD012931D8BFF337
:10B660005B8F54E8003F43F0020244E800210029C8
:10B67000F7D1BFF35B8F9B07EDD41448314619F027
:10B6800025FF134806F1200119F020FFBFF35B8F5F
:10B6900075B154E8003F43F0040344E80032002A47
:10B6A000F7D1BFF35B8F0B4800F062F90020D3E7BE
:10B6B00054E8003F23F0040344E80032002AF0D0AD
:10B6C000F6E71220C8E700BFF8300020FD58002040
:10B6D0001D5900203C04002070B5067D044676B953
:10B6E00083681D8842F22602954245D00FD842F267
:10B6F000010295424FD042F225039D4213D02A4BBE
:10B70000D3F8543120465B69BDE87040184742F2D7
:10B710005E039D42F3D1032108301CF0FAFDA068BE
:10B7200090F840102EE0032108301CF0F2FD204676
:10B7300011F0A6FDBFF35B8F1C4B1A68BFF35B8F44
:10B74000920707D50C26314642F2250019F09AFEE1
:10B75000002070BDBFF35B8F53E8002F42F0010162
:10B7600043E800100028F7D1BFF35B8FD307E9D47B
:10B770000F4800F0FDF8E6E7032108301CF0C9FD92
:10B78000A0683146FFF75CFF0646204611F078FDC1
:10B7900031462846DAE7DA7802F07F02DA701A7961
:10B7A00022F001021A71AAE700000020F830002000
:10B7B0003C04002003490448CA79C2EBC202FEF7E8
:10B7C00093BE00BF00000020DBB70400F7B51B4CA0
:10B7D000BFF35B8F1F462368BFF35B8F1646DA0704
:10B7E000054624D518B96FF0010003B0F0BD01A9DA
:10B7F00018F017FB12490246284619F0C6FD00282A
:10B80000F1D1BFF35B8F2368BFF35B8FC3F3C00538
:10B810001B070CD4CC3C072221463846B0470628EB
:10B8200007D807222946204619F0DEFDE5710020E1
:10B83000DBE70723B0FBF3F0E071F8E7CC00002072
:10B84000B8B404002DE9F04188B09C79DDF8388067
:10B850005D791E79DF7893F802C093F801E01B78D8
:10B86000B8F1000F0ED0CDE90638CDE904CE13466D
:10B87000CDE90267CDE90045084A17F070FC08B031
:10B88000BDE8F081CDE905E3CDE9037C1346CDE9C0
:10B890000156034A009417F062FCF0E7E1B7040098
:10B8A00005B80400014816F045BA00BF4C0400205A
:10B8B00070B51A4CBFF35B8F2368BFF35B8F13F037
:10B8C000010F25461DD014F8C53CA4F1CC06D3B118
:10B8D000BFF35B8F2368BFF35B8F5A0701D400F07F
:10B8E000E9FDBFF35B8F55E8003F23F4803245E864
:10B8F00000210029F7D1BFF35B8FDB0301D5FFF7F0
:10B90000D1FF002009E001F07BF830B9F379002B7A
:10B91000DED101F0B5F80028DAD070BDCC000020EF
:10B9200030B50A4D0A4B85B0002428460293039493
:10B930001DF0B7FB02AB0093284606490A234FF4DB
:10B94000A36216F0FDF9204605B030BD6812002054
:10B9500026B80400985F00200146014816F028BA76
:10B96000681200200146014816F052BA6812002001
:10B97000014601481DF084BB6812002030B4034624
:10B9800008461A78012A13D0022A26D072B9154A1D
:10B9900002F1100452F8045B41F8045BA242F9D1B1
:10B9A00012780A705B8843731B0A837330BC70473C
:10B9B0000C4A02F1100452F8045B41F8045BA24205
:10B9C000F9D112780A705B684373C3F307221B0C2A
:10B9D000C3731B0A82730374E8E730BC1122194653
:10B9E00019F0F7BC2FB8040038B5054605481CF01F
:10B9F0000FFC044620B1002108301CF028FC2575FE
:10BA0000204638BD840F002010B50B460A49024677
:10BA1000D1F8380120B9BDE810400120FFF7E4BF9C
:10BA20001CF026FC012300210375818104460830A7
:10BA30001CF00DFC204610BD0000002070B504462F
:10BA40000F2C0D461046194605D80D2C0DD9BDE812
:10BA50007040FFF7D9BF132C07D10C481CF0D8FB5E
:10BA6000044638B90024204670BD02460B4645B155
:10BA70000748F3E7002108301CF0E9FB0123237598
:10BA8000F1E7BDE870400120FFF7AEBFB00F002026
:10BA9000000F0020F8B506460F4601F059FF044696
:10BAA00040B18378012B24D013211AF00AFC2046E0
:10BAB0001AF0C2FB3946304605F068F9054628BB46
:10BAC0003946304604F08EF8144B1B6823B31C68CB
:10BAD00004B10C3C53F8043C13B139463046984746
